{
  "_format": "hh3-artifact-1",
  "contractName": "PortfolioNFT",
  "sourceName": "contracts/NFT.sol",
  "abi": [
    {
      "inputs": [],
      "stateMutability": "nonpayable",
      "type": "constructor"
    },
    {
      "inputs": [
        {
          "internalType": "address",
          "name": "sender",
          "type": "address"
        },
        {
          "internalType": "uint256",
          "name": "tokenId",
          "type": "uint256"
        },
        {
          "internalType": "address",
          "name": "owner",
          "type": "address"
        }
      ],
      "name": "ERC721IncorrectOwner",
      "type": "error"
    },
    {
      "inputs": [
        {
          "internalType": "address",
          "name": "operator",
          "type": "address"
        },
        {
          "internalType": "uint256",
          "name": "tokenId",
          "type": "uint256"
        }
      ],
      "name": "ERC721InsufficientApproval",
      "type": "error"
    },
    {
      "inputs": [
        {
          "internalType": "address",
          "name": "approver",
          "type": "address"
        }
      ],
      "name": "ERC721InvalidApprover",
      "type": "error"
    },
    {
      "inputs": [
        {
          "internalType": "address",
          "name": "operator",
          "type": "address"
        }
      ],
      "name": "ERC721InvalidOperator",
      "type": "error"
    },
    {
      "inputs": [
        {
          "internalType": "address",
          "name": "owner",
          "type": "address"
        }
      ],
      "name": "ERC721InvalidOwner",
      "type": "error"
    },
    {
      "inputs": [
        {
          "internalType": "address",
          "name": "receiver",
          "type": "address"
        }
      ],
      "name": "ERC721InvalidReceiver",
      "type": "error"
    },
    {
      "inputs": [
        {
          "internalType": "address",
          "name": "sender",
          "type": "address"
        }
      ],
      "name": "ERC721InvalidSender",
      "type": "error"
    },
    {
      "inputs": [
        {
          "internalType": "uint256",
          "name": "tokenId",
          "type": "uint256"
        }
      ],
      "name": "ERC721NonexistentToken",
      "type": "error"
    },
    {
      "inputs": [
        {
          "internalType": "address",
          "name": "owner",
          "type": "address"
        }
      ],
      "name": "OwnableInvalidOwner",
      "type": "error"
    },
    {
      "inputs": [
        {
          "internalType": "address",
          "name": "account",
          "type": "address"
        }
      ],
      "name": "OwnableUnauthorizedAccount",
      "type": "error"
    },
    {
      "anonymous": false,
      "inputs": [
        {
          "indexed": true,
          "internalType": "address",
          "name": "owner",
          "type": "address"
        },
        {
          "indexed": true,
          "internalType": "address",
          "name": "approved",
          "type": "address"
        },
        {
          "indexed": true,
          "internalType": "uint256",
          "name": "tokenId",
          "type": "uint256"
        }
      ],
      "name": "Approval",
      "type": "event"
    },
    {
      "anonymous": false,
      "inputs": [
        {
          "indexed": true,
          "internalType": "address",
          "name": "owner",
          "type": "address"
        },
        {
          "indexed": true,
          "internalType": "address",
          "name": "operator",
          "type": "address"
        },
        {
          "indexed": false,
          "internalType": "bool",
          "name": "approved",
          "type": "bool"
        }
      ],
      "name": "ApprovalForAll",
      "type": "event"
    },
    {
      "anonymous": false,
      "inputs": [
        {
          "indexed": false,
          "internalType": "uint256",
          "name": "_fromTokenId",
          "type": "uint256"
        },
        {
          "indexed": false,
          "internalType": "uint256",
          "name": "_toTokenId",
          "type": "uint256"
        }
      ],
      "name": "BatchMetadataUpdate",
      "type": "event"
    },
    {
      "anonymous": false,
      "inputs": [
        {
          "indexed": false,
          "internalType": "uint256",
          "name": "_tokenId",
          "type": "uint256"
        }
      ],
      "name": "MetadataUpdate",
      "type": "event"
    },
    {
      "anonymous": false,
      "inputs": [
        {
          "indexed": true,
          "internalType": "address",
          "name": "to",
          "type": "address"
        },
        {
          "indexed": true,
          "internalType": "uint256",
          "name": "tokenId",
          "type": "uint256"
        },
        {
          "indexed": false,
          "internalType": "uint256",
          "name": "price",
          "type": "uint256"
        }
      ],
      "name": "Minted",
      "type": "event"
    },
    {
      "anonymous": false,
      "inputs": [
        {
          "indexed": true,
          "internalType": "address",
          "name": "previousOwner",
          "type": "address"
        },
        {
          "indexed": true,
          "internalType": "address",
          "name": "newOwner",
          "type": "address"
        }
      ],
      "name": "OwnershipTransferred",
      "type": "event"
    },
    {
      "anonymous": false,
      "inputs": [
        {
          "indexed": true,
          "internalType": "address",
          "name": "from",
          "type": "address"
        },
        {
          "indexed": true,
          "internalType": "address",
          "name": "to",
          "type": "address"
        },
        {
          "indexed": true,
          "internalType": "uint256",
          "name": "tokenId",
          "type": "uint256"
        }
      ],
      "name": "Transfer",
      "type": "event"
    },
    {
      "anonymous": false,
      "inputs": [
        {
          "indexed": false,
          "internalType": "address",
          "name": "owner",
          "type": "address"
        },
        {
          "indexed": false,
          "internalType": "uint256",
          "name": "amount",
          "type": "uint256"
        }
      ],
      "name": "Withdraw",
      "type": "event"
    },
    {
      "inputs": [
        {
          "internalType": "address",
          "name": "to",
          "type": "address"
        },
        {
          "internalType": "uint256",
          "name": "tokenId",
          "type": "uint256"
        }
      ],
      "name": "approve",
      "outputs": [],
      "stateMutability": "nonpayable",
      "type": "function"
    },
    {
      "inputs": [
        {
          "internalType": "address",
          "name": "owner",
          "type": "address"
        }
      ],
      "name": "balanceOf",
      "outputs": [
        {
          "internalType": "uint256",
          "name": "",
          "type": "uint256"
        }
      ],
      "stateMutability": "view",
      "type": "function"
    },
    {
      "inputs": [
        {
          "internalType": "uint256",
          "name": "tokenId",
          "type": "uint256"
        }
      ],
      "name": "getApproved",
      "outputs": [
        {
          "internalType": "address",
          "name": "",
          "type": "address"
        }
      ],
      "stateMutability": "view",
      "type": "function"
    },
    {
      "inputs": [
        {
          "internalType": "address",
          "name": "owner",
          "type": "address"
        },
        {
          "internalType": "address",
          "name": "operator",
          "type": "address"
        }
      ],
      "name": "isApprovedForAll",
      "outputs": [
        {
          "internalType": "bool",
          "name": "",
          "type": "bool"
        }
      ],
      "stateMutability": "view",
      "type": "function"
    },
    {
      "inputs": [],
      "name": "name",
      "outputs": [
        {
          "internalType": "string",
          "name": "",
          "type": "string"
        }
      ],
      "stateMutability": "view",
      "type": "function"
    },
    {
      "inputs": [],
      "name": "owner",
      "outputs": [
        {
          "internalType": "address",
          "name": "",
          "type": "address"
        }
      ],
      "stateMutability": "view",
      "type": "function"
    },
    {
      "inputs": [
        {
          "internalType": "uint256",
          "name": "tokenId",
          "type": "uint256"
        }
      ],
      "name": "ownerOf",
      "outputs": [
        {
          "internalType": "address",
          "name": "",
          "type": "address"
        }
      ],
      "stateMutability": "view",
      "type": "function"
    },
    {
      "inputs": [],
      "name": "renounceOwnership",
      "outputs": [],
      "stateMutability": "nonpayable",
      "type": "function"
    },
    {
      "inputs": [],
      "name": "safeMint",
      "outputs": [
        {
          "internalType": "uint256",
          "name": "",
          "type": "uint256"
        }
      ],
      "stateMutability": "payable",
      "type": "function"
    },
    {
      "inputs": [
        {
          "internalType": "address",
          "name": "from",
          "type": "address"
        },
        {
          "internalType": "address",
          "name": "to",
          "type": "address"
        },
        {
          "internalType": "uint256",
          "name": "tokenId",
          "type": "uint256"
        }
      ],
      "name": "safeTransferFrom",
      "outputs": [],
      "stateMutability": "nonpayable",
      "type": "function"
    },
    {
      "inputs": [
        {
          "internalType": "address",
          "name": "from",
          "type": "address"
        },
        {
          "internalType": "address",
          "name": "to",
          "type": "address"
        },
        {
          "internalType": "uint256",
          "name": "tokenId",
          "type": "uint256"
        },
        {
          "internalType": "bytes",
          "name": "data",
          "type": "bytes"
        }
      ],
      "name": "safeTransferFrom",
      "outputs": [],
      "stateMutability": "nonpayable",
      "type": "function"
    },
    {
      "inputs": [
        {
          "internalType": "address",
          "name": "operator",
          "type": "address"
        },
        {
          "internalType": "bool",
          "name": "approved",
          "type": "bool"
        }
      ],
      "name": "setApprovalForAll",
      "outputs": [],
      "stateMutability": "nonpayable",
      "type": "function"
    },
    {
      "inputs": [
        {
          "internalType": "bytes4",
          "name": "interfaceId",
          "type": "bytes4"
        }
      ],
      "name": "supportsInterface",
      "outputs": [
        {
          "internalType": "bool",
          "name": "",
          "type": "bool"
        }
      ],
      "stateMutability": "view",
      "type": "function"
    },
    {
      "inputs": [],
      "name": "symbol",
      "outputs": [
        {
          "internalType": "string",
          "name": "",
          "type": "string"
        }
      ],
      "stateMutability": "view",
      "type": "function"
    },
    {
      "inputs": [
        {
          "internalType": "uint256",
          "name": "tokenId",
          "type": "uint256"
        }
      ],
      "name": "tokenURI",
      "outputs": [
        {
          "internalType": "string",
          "name": "",
          "type": "string"
        }
      ],
      "stateMutability": "view",
      "type": "function"
    },
    {
      "inputs": [
        {
          "internalType": "address",
          "name": "from",
          "type": "address"
        },
        {
          "internalType": "address",
          "name": "to",
          "type": "address"
        },
        {
          "internalType": "uint256",
          "name": "tokenId",
          "type": "uint256"
        }
      ],
      "name": "transferFrom",
      "outputs": [],
      "stateMutability": "nonpayable",
      "type": "function"
    },
    {
      "inputs": [
        {
          "internalType": "address",
          "name": "newOwner",
          "type": "address"
        }
      ],
      "name": "transferOwnership",
      "outputs": [],
      "stateMutability": "nonpayable",
      "type": "function"
    },
    {
      "inputs": [],
      "name": "withdraw",
      "outputs": [],
      "stateMutability": "nonpayable",
      "type": "function"
    }
  ],
  "bytecode": "0x6080604052662386f26fc1000060095534801561001a575f5ffd5b50336040518060400160405280600c81526020016b141bdc9d199bdb1a5bd3919560a21b815250604051806040016040528060048152602001631413919560e21b815250815f908161006c91906101a1565b50600161007982826101a1565b5050506001600160a01b0381166100a957604051631e4fbdf760e01b81525f600482015260240160405180910390fd5b6100b2816100b8565b5061025b565b600780546001600160a01b038381166001600160a01b0319831681179093556040519116919082907f8be0079c531659141344cd1fd0a4f28419497f9722a3daafe3b4186f6b6457e0905f90a35050565b634e487b7160e01b5f52604160045260245ffd5b600181811c9082168061013157607f821691505b60208210810361014f57634e487b7160e01b5f52602260045260245ffd5b50919050565b601f82111561019c57805f5260205f20601f840160051c8101602085101561017a5750805b601f840160051c820191505b81811015610199575f8155600101610186565b50505b505050565b81516001600160401b038111156101ba576101ba610109565b6101ce816101c8845461011d565b84610155565b6020601f821160018114610200575f83156101e95750848201515b5f19600385901b1c1916600184901b178455610199565b5f84815260208120601f198516915b8281101561022f578785015182556020948501946001909201910161020f565b508482101561024c57868401515f19600387901b60f8161c191681555b50505050600190811b01905550565b61142d806102685f395ff3fe608060405260043610610105575f3560e01c806370a0823111610092578063a22cb46511610062578063a22cb465146102a1578063b88d4fde146102c0578063c87b56dd146102df578063e985e9c5146102fe578063f2fde38b1461031d575f5ffd5b806370a082311461023d578063715018a61461025c5780638da5cb5b1461027057806395d89b411461028d575f5ffd5b806323b872dd116100d857806323b872dd146101b65780633ccfd60b146101d557806342842e0e146101e95780636352211e146102085780636871ee4014610227575f5ffd5b806301ffc9a71461010957806306fdde031461013d578063081812fc1461015e578063095ea7b314610195575b5f5ffd5b348015610114575f5ffd5b50610128610123366004611073565b61033c565b60405190151581526020015b60405180910390f35b348015610148575f5ffd5b5061015161034c565b60405161013491906110bc565b348015610169575f5ffd5b5061017d6101783660046110ce565b6103db565b6040516001600160a01b039091168152602001610134565b3480156101a0575f5ffd5b506101b46101af366004611100565b610402565b005b3480156101c1575f5ffd5b506101b46101d0366004611128565b610411565b3480156101e0575f5ffd5b506101b461049f565b3480156101f4575f5ffd5b506101b4610203366004611128565b610553565b348015610213575f5ffd5b5061017d6102223660046110ce565b610572565b61022f61057c565b604051908152602001610134565b348015610248575f5ffd5b5061022f610257366004611162565b61062c565b348015610267575f5ffd5b506101b4610671565b34801561027b575f5ffd5b506007546001600160a01b031661017d565b348015610298575f5ffd5b50610151610684565b3480156102ac575f5ffd5b506101b46102bb36600461117b565b610693565b3480156102cb575f5ffd5b506101b46102da3660046111c8565b61069e565b3480156102ea575f5ffd5b506101516102f93660046110ce565b6106b6565b348015610309575f5ffd5b506101286103183660046112a5565b6106c1565b348015610328575f5ffd5b506101b4610337366004611162565b6106ee565b5f6103468261072b565b92915050565b60605f805461035a906112d6565b80601f0160208091040260200160405190810160405280929190818152602001828054610386906112d6565b80156103d15780601f106103a8576101008083540402835291602001916103d1565b820191905f5260205f20905b8154815290600101906020018083116103b457829003601f168201915b5050505050905090565b5f6103e58261074f565b505f828152600460205260409020546001600160a01b0316610346565b61040d828233610787565b5050565b6001600160a01b03821661043f57604051633250574960e11b81525f60048201526024015b60405180910390fd5b5f61044b838333610794565b9050836001600160a01b0316816001600160a01b031614610499576040516364283d7b60e01b81526001600160a01b0380861660048301526024820184905282166044820152606401610436565b50505050565b6104a7610886565b47806104ec5760405162461bcd60e51b81526020600482015260146024820152734e6f2066756e647320746f20776974686472617760601b6044820152606401610436565b604051339082156108fc029083905f818181858888f19350505050158015610516573d5f5f3e3d5ffd5b5060408051338152602081018390527f884edad9ce6fa2440d8a54cc123490eb96d2768479d49ff9c7366125a9424364910160405180910390a150565b61056d83838360405180602001604052805f81525061069e565b505050565b5f6103468261074f565b5f60095434146105c15760405162461bcd60e51b815260206004820152601060248201526f092dce6eaccccd2c6d2cadce8408aa8960831b6044820152606401610436565b600880545f91826105d18361130e565b9190505590506105e133826108b3565b80336001600160a01b03167f25b428dfde728ccfaddad7e29e4ac23c24ed7fd1a6e3e3f91894a9a073f5dfff60095460405161061f91815260200190565b60405180910390a3919050565b5f6001600160a01b038216610656576040516322718ad960e21b81525f6004820152602401610436565b506001600160a01b03165f9081526003602052604090205490565b610679610886565b6106825f6108cc565b565b60606001805461035a906112d6565b61040d33838361091d565b6106a9848484610411565b61049933858585856109bb565b606061034682610ae3565b6001600160a01b039182165f90815260056020908152604080832093909416825291909152205460ff1690565b6106f6610886565b6001600160a01b03811661071f57604051631e4fbdf760e01b81525f6004820152602401610436565b610728816108cc565b50565b5f6001600160e01b03198216632483248360e11b1480610346575061034682610be2565b5f818152600260205260408120546001600160a01b03168061034657604051637e27328960e01b815260048101849052602401610436565b61056d8383836001610c31565b5f828152600260205260408120546001600160a01b03908116908316156107c0576107c0818486610d35565b6001600160a01b038116156107fa576107db5f855f5f610c31565b6001600160a01b0381165f90815260036020526040902080545f190190555b6001600160a01b03851615610828576001600160a01b0385165f908152600360205260409020805460010190555b5f8481526002602052604080822080546001600160a01b0319166001600160a01b0389811691821790925591518793918516917fddf252ad1be2c89b69c2b068fc378daa952ba7f163c4a11628f55a4df523b3ef91a4949350505050565b6007546001600160a01b031633146106825760405163118cdaa760e01b8152336004820152602401610436565b61040d828260405180602001604052805f815250610d99565b600780546001600160a01b038381166001600160a01b0319831681179093556040519116919082907f8be0079c531659141344cd1fd0a4f28419497f9722a3daafe3b4186f6b6457e0905f90a35050565b6001600160a01b03821661094f57604051630b61174360e31b81526001600160a01b0383166004820152602401610436565b6001600160a01b038381165f81815260056020908152604080832094871680845294825291829020805460ff191686151590811790915591519182527f17307eab39ab6107e8899845ad3d59bd9653f200f220920489ca2b5937696c31910160405180910390a3505050565b6001600160a01b0383163b15610adc57604051630a85bd0160e11b81526001600160a01b0384169063150b7a02906109fd908890889087908790600401611332565b6020604051808303815f875af1925050508015610a37575060408051601f3d908101601f19168201909252610a349181019061136e565b60015b610a9e573d808015610a64576040519150601f19603f3d011682016040523d82523d5f602084013e610a69565b606091505b5080515f03610a9657604051633250574960e11b81526001600160a01b0385166004820152602401610436565b805160208201fd5b6001600160e01b03198116630a85bd0160e11b14610ada57604051633250574960e11b81526001600160a01b0385166004820152602401610436565b505b5050505050565b6060610aee8261074f565b505f8281526006602052604081208054610b07906112d6565b80601f0160208091040260200160405190810160405280929190818152602001828054610b33906112d6565b8015610b7e5780601f10610b5557610100808354040283529160200191610b7e565b820191905f5260205f20905b815481529060010190602001808311610b6157829003601f168201915b505050505090505f610b8e610db0565b905080515f03610b9f575092915050565b815115610bd1578082604051602001610bb99291906113a0565b60405160208183030381529060405292505050919050565b610bda84610dd0565b949350505050565b5f6001600160e01b031982166380ac58cd60e01b1480610c1257506001600160e01b03198216635b5e139f60e01b145b8061034657506301ffc9a760e01b6001600160e01b0319831614610346565b8080610c4557506001600160a01b03821615155b15610d06575f610c548461074f565b90506001600160a01b03831615801590610c805750826001600160a01b0316816001600160a01b031614155b8015610c935750610c9181846106c1565b155b15610cbc5760405163a9fbf51f60e01b81526001600160a01b0384166004820152602401610436565b8115610d045783856001600160a01b0316826001600160a01b03167f8c5be1e5ebec7d5bd14f71427d1e84f3dd0314c0f7b2291e5b200ac8c7c3b92560405160405180910390a45b505b50505f90815260046020526040902080546001600160a01b0319166001600160a01b0392909216919091179055565b610d40838383610e35565b61056d576001600160a01b038316610d6e57604051637e27328960e01b815260048101829052602401610436565b60405163177e802f60e01b81526001600160a01b038316600482015260248101829052604401610436565b610da38383610e96565b61056d335f8585856109bb565b60606040518060800160405280604381526020016113b560439139905090565b6060610ddb8261074f565b505f610de5610db0565b90505f815111610e035760405180602001604052805f815250610e2e565b80610e0d84610ef7565b604051602001610e1e9291906113a0565b6040516020818303038152906040525b9392505050565b5f6001600160a01b03831615801590610bda5750826001600160a01b0316846001600160a01b03161480610e6e5750610e6e84846106c1565b80610bda5750505f908152600460205260409020546001600160a01b03908116911614919050565b6001600160a01b038216610ebf57604051633250574960e11b81525f6004820152602401610436565b5f610ecb83835f610794565b90506001600160a01b0381161561056d576040516339e3563760e11b81525f6004820152602401610436565b60605f610f0383610f87565b60010190505f8167ffffffffffffffff811115610f2257610f226111b4565b6040519080825280601f01601f191660200182016040528015610f4c576020820181803683370190505b5090508181016020015b5f19016f181899199a1a9b1b9c1cb0b131b232b360811b600a86061a8153600a8504945084610f5657509392505050565b5f8072184f03e93ff9f4daa797ed6e38ed64bf6a1f0160401b8310610fc55772184f03e93ff9f4daa797ed6e38ed64bf6a1f0160401b830492506040015b6d04ee2d6d415b85acef81000000008310610ff1576d04ee2d6d415b85acef8100000000830492506020015b662386f26fc10000831061100f57662386f26fc10000830492506010015b6305f5e1008310611027576305f5e100830492506008015b612710831061103b57612710830492506004015b6064831061104d576064830492506002015b600a83106103465760010192915050565b6001600160e01b031981168114610728575f5ffd5b5f60208284031215611083575f5ffd5b8135610e2e8161105e565b5f81518084528060208401602086015e5f602082860101526020601f19601f83011685010191505092915050565b602081525f610e2e602083018461108e565b5f602082840312156110de575f5ffd5b5035919050565b80356001600160a01b03811681146110fb575f5ffd5b919050565b5f5f60408385031215611111575f5ffd5b61111a836110e5565b946020939093013593505050565b5f5f5f6060848603121561113a575f5ffd5b611143846110e5565b9250611151602085016110e5565b929592945050506040919091013590565b5f60208284031215611172575f5ffd5b610e2e826110e5565b5f5f6040838503121561118c575f5ffd5b611195836110e5565b9150602083013580151581146111a9575f5ffd5b809150509250929050565b634e487b7160e01b5f52604160045260245ffd5b5f5f5f5f608085870312156111db575f5ffd5b6111e4856110e5565b93506111f2602086016110e5565b925060408501359150606085013567ffffffffffffffff811115611214575f5ffd5b8501601f81018713611224575f5ffd5b803567ffffffffffffffff81111561123e5761123e6111b4565b604051601f8201601f19908116603f0116810167ffffffffffffffff8111828210171561126d5761126d6111b4565b604052818152828201602001891015611284575f5ffd5b816020840160208301375f6020838301015280935050505092959194509250565b5f5f604083850312156112b6575f5ffd5b6112bf836110e5565b91506112cd602084016110e5565b90509250929050565b600181811c908216806112ea57607f821691505b60208210810361130857634e487b7160e01b5f52602260045260245ffd5b50919050565b5f6001820161132b57634e487b7160e01b5f52601160045260245ffd5b5060010190565b6001600160a01b03858116825284166020820152604081018390526080606082018190525f906113649083018461108e565b9695505050505050565b5f6020828403121561137e575f5ffd5b8151610e2e8161105e565b5f81518060208401855e5f93019283525090919050565b5f610bda6113ae8386611389565b8461138956fe697066733a2f2f626166796265696165656f63617a786e6a666b6c32756c347037616b626a337734696a6b7836643237766a3734727a7373766761756f656f6479652fa2646970667358221220e78710908eccea0db463cd22f7aa0fc0f27e23405ccca37b496186706557e1ad64736f6c634300081c0033",
  "linkReferences": {},
  "deployedLinkReferences": {},
  "immutableReferences": {},
  "inputSourceName": "project/contracts/NFT.sol",
  "buildInfoId": "solc-0_8_28-9a2ef2eb6779a204a73c32428e14eab1b351f50c"
}